:020000002628B0
:100008007E1480310B1D09280A2816288330200009
:1000180095000B110130A4070030A53D0030A63D26
:100028000030A73D2000911C1A281B282428911075
:100038000130A0070030A13D0030A23D0030A33DB3
:100048007E10090027282000A001A101A201A30118
:10005800A401A501A601A7017E10200033287C3049
:1000680021009900043095008330200095008B17FB
:100078000B178B16210091143D3020009C007D3019
:100088009B0023008C017A3021008C0020008C0119
:100098000030AB000030AA000030A9000030A800F2
:1000A8000030AF000030AE000030AD000030AC00D2
:1000B800200028082402F4002908253BF5002A0816
:1000C800263BF6002B08273BF7007708031D772807
:1000D8007608031D7728E93074020330753B031C4A
:1000E8007628772887280230F0000030F100803128
:1000F800B320803120002708AB002608AA00250875
:10010800A9002408A80020002C082002F4002D08CB
:10011800213BF5002E08223BF6002F08233BF70071
:100128007708031DA2287608031DA228E930740267
:100138000330753B031CA128A2285C280030F0007E
:10014800F1008031B320803120002308AF0022085D
:10015800AE002108AD002008AC005C282628F11B61
:10016800B628B728D0287108803AF2008030720289
:10017800031DC028063070020318C328C428D028DD
:100188000130F200700AC928F235890BC8287208B4
:0A019800F300730820008C06080035
:020000040001F9
:04000E00A409FF1F23
:00000001FF
