:020000001828BE
:100008007E1480310B1D09280A2816288330200009
:1000180095000B110130A0070030A13D0030A23D32
:100028000030A33D7E10090019282000A001A1017D
:10003800A201A3017E10200021287C302100990014
:10004800043095008330200095008B170B178B1612
:1000580023008C017B3021008C0020008C010030B3
:10006800FB000030FA000030F9000030F800780892
:1000780020002002F4007908213BF5007A08223B91
:10008800F6007B08233BF7007708031D56287608FF
:10009800031D5628E93074020330753B031C5528AC
:1000A80056283B280230F0000030F10080316820EB
:1000B800803120002308FB002208FA002108F900FB
:1000C8002008F8003B281828F11B6B286C28852885
:1000D8007108803AF20080307202031D75280630DC
:1000E800700203187828792885280130F200700AF0
:1000F8007E28F235890B7D287208F30073082000EA
:040108008C06080059
:020000040001F9
:04000E00A409FF1F23
:00000001FF
