:020000001828BE
:100008007E1480310B1D09280A2816288330200009
:1000180095000B110130F8070030F93D0030FA3D2A
:100028000030FB3D7E1009001928F801F901FA019A
:10003800FB017E10200020287F3021009900043029
:1000480095008330200095008B170B178B16230023
:100058008C017B3021008C0020008C010030F700DF
:100068000030F6000030F5000030F4000430F000F5
:10007800700820008C0674087802F0007508793B37
:10008800F10076087A3BF20077087B3BF3007308AF
:10009800031D59287208031D5928F43070020130D5
:1000A800713B031C582859283F287B08F7007A0819
:0E00B800F6007908F5007808F4003A281828B8
:020000040001F9
:04000E00A409FF1F23
:00000001FF
