:020000001028C6
:10000800FE00030E83120313A0000408A1000A08CF
:10001800A2007F08A3006C2B112883120313C301CD
:10002800C401C501C601C701C8018301D72B8312CA
:100038000313AD00A91B2128222841292908803A49
:10004800FF0080307F02031D2B2804302802031C88
:100058002E282F28142941293F30AA000530AB004B
:100068002B08A40028080524831203134907AC00B1
:100078002C08043E84002A08831380004129063096
:10008800AA000530AB002B08A40028080524831219
:1000980003134907AC002C08043E84002A08831384
:1000A800800041295B30AA000530AB002B08A40072
:1000B80028080524831203134907AC002C08043EC2
:1000C80084002A088313800041294F30AA00053094
:1000D800AB002B08A4002808052483120313490742
:1000E800AC002C08043E84002A08831380004129B0
:1000F8006630AA000530AB002B08A40028080524A8
:10010800831203134907AC002C08043E84002A0814
:100118008313800041296D30AA000530AB002B08FD
:10012800A40028080524831203134907AC002C08EF
:10013800043E84002A088313800041297D30AA00E8
:100148000530AB002B08A4002808052483120313EC
:100158004907AC002C08043E84002A088313800059
:1001680041294730AA000530AB002B08A400280815
:100178000524831203134907AC002C08043E8400AD
:100188002A088313800041297F30AA000530AB007C
:100198002B08A40028080524831203134907AC0080
:1001A8002C08043E84002A08831380004129673004
:1001B800AA000530AB002B08A400280805248312E8
:1001C80003134907AC002C08043E84002A08831353
:1001D800800041295E30AA000530AB002B08A4003E
:1001E80028080524831203134907AC002C08043E91
:1001F80084002A088313800041297730AA0005303B
:10020800AB002B08A4002808052483120313490710
:10021800AC002C08043E84002A088313800041297E
:10022800831203132D08AA00AB012B08003A031907
:100238001E2901292A08303A03193028013A0319DE
:100248004328033A03195628013A03196928073A3B
:1002580003197C28013A03198F28033A0319A228A5
:10026800013A0319B5280F3A0319C828013A0319A6
:10027800DB285D3A0319EE2801290800B229F51B8D
:1002880046294729C2297508803AFF0080307F0235
:10029800031D502906307402031853295429C22912
:1002A8000130F800740A5A290310F80DFF3E031DA7
:1002B80058297808FF3AF90079088312031385054D
:1002C800C2297508803AFF0080307F02031D6E291D
:1002D80004307402031C71297229C2297508803AF6
:1002E800FF0080307F02031D7B2908307402031849
:1002F8007E297F29C2290130F800740A8529031054
:10030800F80DFF3E031D83297808FF3AF9007908A4
:10031800831203138605C229F51B93299429C22940
:100328007508803AFF0080307F02031D9D29083040
:1003380074020318A029A129C2290130F800740AFF
:10034800A7290310F80DFF3E031DA5297808FF3AD9
:10035800F9007908831203138705C2297708003A40
:100368000319B729C2297608003A03194329013A23
:1003780003196529033A03199029C2290800302A6C
:10038800F51BC729C829402A7508803AFF00803024
:100398007F02031DD129063074020318D429D529F8
:1003A800402A0130F800740ADB290310F80DFF3EDB
:1003B800031DD9297808F9007908831203138504E5
:1003C800402A7508803AFF0080307F02031DEE291D
:1003D80004307402031CF129F229402A7508803A76
:1003E800FF0080307F02031DFB29083074020318C8
:1003F800FE29FF29402A0130F800740A052A031053
:10040800F80DFF3E031D032A7808F90079088312C6
:1004180003138604402AF51B122A132A402A75085A
:10042800803AFF0080307F02031D1C2A08307402C6
:1004380003181F2A202A402A0130F800740A262AA5
:100448000310F80DFF3E031D242A7808F9007908E7
:10045800831203138704402A7708003A0319352AC0
:10046800402A7608003A0319C429013A0319E529F4
:10047800033A03190F2A402A08000530FA007A08BF
:10048800F0008312031347081C248312031349073F
:10049800FB007B08840083130008F400840A00082A
:1004A800F5000530FC007C08F00047081C24831286
:1004B80003134907FD007D08023E840083130008EA
:1004C800F600840A0008F700C321013083120313E1
:1004D800C7070318C80A0030C8074808803AFF0051
:1004E80080307F02031D7A2A04304702031C7D2ACC
:1004F8007E2A822A83120313C701C8010530FA0035
:100508007A08F0008312031347081C24831203138C
:100518004907FB007B08043E84008313000887001A
:100528000530FA007A08F00047081C2483120313E8
:100538004907FB007B08840083130008F400840A41
:100548000008F5000530FC007C08F00047081C2472
:10055800831203134907FD007D08023E84008313BC
:100568000008F600840A0008F700422108007730E6
:1005780083120313A4004908043E8400240883134B
:1005880080004908840004308000840A003080001C
:100598004908023E840001308000840A003080004F
:1005A8007C30A4004908093E8400240880004908DA
:1005B800053E840005308000840A00308000490828
:1005C800073E84008001840A80013F30A400490866
:1005D8000E3E84002408800049080A3E8400063044
:1005E8008000840A0030800049080C3E84000130F5
:1005F8008000840A003080000630A4004908133EB9
:1006080084002408800049080F3E840007308000D9
:10061800840A003080004908113E840001308000BF
:10062800840A0030800008007308720471047004A2
:1006380003191F2B202B632BF901F90A302B0130EA
:10064800F8000310F00DF10DF20DF30DF80B252B4A
:100658000130F8007808F907F31F332B342B232BCC
:1006680073087702031D422B72087602031D422B82
:1006780071087502031D422B70087402031C452B78
:10068800462B542B7008F4027108031C710FF502F5
:100698007208031C720FF6027308031C730FF7022B
:1006A80001300310F30CF20CF10CF00CFF3E031DAB
:1006B800552B0130F902031D622B632B342B77086D
:1006C800F3007608F2007508F1007408F0000800DD
:1006D8000B1D6F2B702B9B2B0B118530810001306C
:1006E800C307003003180130C40700300318013075
:1006F800C507003003180130C6070030F30000308A
:10070800F2000030F1000530F0004608F700450817
:10071800F6004408F5004308F4001823730872042F
:1007280071047004031D992B9A2B9B2B4122831271
:1007380003132308FF0022088A0021088400200EE2
:100748008300FE0E7E0E0900831603130F14FD307E
:1007580083120313A4002408831603138F050F15AF
:10076800F73083120313A4002408831603138F059C
:10077800703083120313A4002408831603138F0414
:100788000330810085308312031381008B170B1708
:100798008B160B120B1117308316031385002030AC
:1007A800860087010800A823E0308312031386001F
:1007B8002030850087012F30AE002E08C900BB22EB
:1007C800003083120313A800A90034301B20013025
:1007D80083120313A8000030A90064301B200230E4
:1007E80083120313A8000030A90039301B200330FE
:1007F80083120313A8000030A90070301B20032CBB
:10080800102883120313A700A601271C0C2C0D2CFB
:10081800112C2408A5002508A6070310A40D031011
:10082800A70C2708031D192C1A2C092C26080800C8
:10083800F300F201731C212C222C262C7008F100E5
:100848007108F2070310F00D0310F30C7308031D71
:0A0858002E2C2F2C1E2C7208080015
:02400E00D430AC
:00000001FF
