:020000000A28CC
:10000800FE00030EF4000A08F500B42B0B28EE27B7
:10001800E100EF27E200F027E300F127E400F227F0
:10002800E500F327E600F427E700F527E800831347
:10003800A0308400BB30F627573084006130F627A3
:10004800763084007A30F62783012A28E326B927F8
:100058007D2783120313C6016430BE228312031363
:10006800C601C60A6430BE22023083120313D200CE
:100078005208C6006430BE22033083120313D20034
:100088005208C6006430BE2283120313D601003022
:10009800B0000030AF000030AE000530AD005A08A7
:1000A800B4005908B3005808B2005708B1003A26FE
:1000B8008312031330082F042E042D04031D652812
:1000C800662867285124831203135608613E84006A
:1000D80083130008D2000330D3005308A000560849
:1000E800D727A23E84008313000883120313520605
:1000F80003197F288028BD285608613E840000081F
:10010800031D87288828BD282F30D2000030D3004F
:100118000030D4000030D5005708D207580803181B
:10012800580F97289828D30759080318590F9D285E
:100138009E28D4075A0803185A0AD5075508E0001C
:100148005408DF005308DE005208DD005608613EFF
:1001580084000008D2000330D3005308A0005608DA
:10016800D727A23E8400831203135208831380000A
:10017800EE285608613E84000008D2000330D30000
:100188005308A0005608D727A23E8400831300080E
:100198008312031352060319D228D3284B28560872
:1001A800613E84000003031DDA28DB284B2856082B
:1001B800613E84000008D2000330D3005308A00039
:1001C8005608D727A23E84008312031352088313CC
:1001D80080004B2890269026003083120313B0002D
:1001E8000030AF000030AE000530AD005A08B40052
:1001F8005908B3005808B2005708B1003A268312CC
:10020800031330082F042E042D04031D0C290D2977
:100218000E29512483120313D6015608613E840027
:1002280083130008D2000330D3005308A0005608F7
:10023800D727A23E840083130008831203135206B3
:1002480003192729282949295608613E84000008EE
:10025800031D2F29302949295608013E852183127B
:1002680003135608613E840083130008D20003304C
:10027800D3005308A0005608D727A23E8400831253
:10028800031352088313800079295608613E8400BD
:100298000008D2000330D3005308A0005608D7271F
:1002A800A23E840083130008831203135206031925
:1002B8005E295F2979295608613E84000003031DE1
:1002C8006629672979295608613E84000008D2000A
:1002D8000330D3005308A0005608D727A23E840055
:1002E800831203135208831380000130D20052088E
:1002F800D60705305602031C822983291129F028C4
:100308000A2883120313D1005103031D8C298D2958
:10031800C029E801CD01CE01CF01D001B229831255
:1003280003136708CA00CB014A08BF004B08C00086
:100338009026831203133808C2003708C1008525A8
:10034800831203133F08CD070318CE0A4008CE07CF
:100358000130CF070318D00A0030D0075008803A80
:10036800CA0080304A02031DBB2966084F02031CDD
:10037800BE29BF299329BD2A6808031DC429C52998
:100388006F2AE801E80AC6016608303EBE228312D9
:100398000313C601C60A6430BE2202308312031357
:1003A800CA004A08C6000A30A0000030A100670849
:1003B800CB00CC014B08A2004C08A300BF24831239
:1003C80003132008303EBE22033083120313CA00F1
:1003D8004A08C6000A30BF000030C0006708CB00DA
:1003E800CC014B08C1004C08C200852583120313B9
:1003F8003F08303EBE22BD2A093066020318052A8E
:10040800062A852A0130CA004A08E607852A0230EA
:100418006602031C102A112A852A0130E602852A61
:10042800143067020318192A1A2A852A342A143024
:10043800CA004A08E700852A0C30CA004A08E700C3
:10044800852A0A30CA004A08E700852A0830CA0007
:100458004A08E700852A0130CA004A08E707852AC2
:100468006708CA00CB014B08003A03193C2A2F2A17
:100478004A08063A03192A2A0E3A0319252A023A83
:100488000319202A063A03191B2A2F2A0330670268
:10049800031C4F2A502A852A592A0630CA004A08BE
:1004A800E700852A0130E702852A6708CA00CB01E0
:1004B8004B08003A0319612A562A4A08083A0319D0
:1004C800512A023A03192A2A063A0319252A183A00
:1004D8000319202A562A5108CA00CB014B08003AB2
:1004E8000319772A852A4A08023A0319002A013A89
:1004F80003190B2A073A0319142A013A03194A2A3D
:10050800852AC6016608303EBE2283120313C6013F
:10051800C60A6430BE22023083120313CA004A0896
:10052800C6000A30A0000030A1006708CB00CC014B
:100538004B08A2004C08A300BF2483120313200811
:10054800303EBE22033083120313CA004A08C60095
:100558000A30BF000030C0006708CB00CC014B0850
:10056800C1004C08C2008525831203133F08303EA2
:10057800BE22080083120313C90004304602031C7C
:10058800C62AC72A882BB32B3F30C7000330C800C0
:100598004808A0004608D727B13E840083120313F9
:1005A800470883138000B32B0630C7000330C80008
:1005B8004808A0004608D727B13E840083120313D9
:1005C800470883138000B32B5B30C7000330C80093
:1005D8004808A0004608D727B13E840083120313B9
:1005E800470883138000B32B4F30C7000330C8007F
:1005F8004808A0004608D727B13E84008312031399
:10060800470883138000B32B6630C7000330C80047
:100618004808A0004608D727B13E84008312031378
:10062800470883138000B32B6D30C7000330C80020
:100638004808A0004608D727B13E84008312031358
:10064800470883138000B32B7D30C7000330C800F0
:100658004808A0004608D727B13E84008312031338
:10066800470883138000B32B0730C7000330C80046
:100678004808A0004608D727B13E84008312031318
:10068800470883138000B32B7F30C7000330C800AE
:100698004808A0004608D727B13E840083120313F8
:1006A800470883138000B32B6730C7000330C800A6
:1006B8004808A0004608D727B13E840083120313D8
:1006C800470883138000B32B5E30C7000330C8008F
:1006D8004808A0004608D727B13E840083120313B8
:1006E800470883138000B32B7730C7000330C80056
:1006F8004808A0004608D727B13E84008312031398
:10070800470883138000B32B4908C700C80148086D
:10071800003A0319902B782B4708303A0319C82A56
:10072800013A0319D82A033A0319E82A013A0319A6
:10073800F82A073A0319082B013A0319182B033A28
:100748000319282B013A0319382B0F3A0319482BA0
:10075800013A0319582B5D3A0319682B782B0800C6
:100768000B1DB72BB82BCB2B0B1185308312031322
:1007780081000130D707003003180130D807003056
:1007880003180130D907003003180130DA070B1CB1
:10079800CE2BCF2B4A2C831203135708F00058088E
:1007A800F1005908F2005A08F3007608F0027708B9
:1007B800031C770FE02BE12BF1027808031C780F5C
:1007C800E62BE72BF2027908031C790FEC2BED2BB3
:1007D800F3027308031DFE2B7208031DFE2B71081C
:1007E800031DFE2B14307002031DFA2B031CFD2B76
:1007F800FE2B492C831203130608F0000430031063
:10080800F00CFF3E031D032C70080139F10071083C
:10081800E1000608F00006300310F00CFF3E031D4F
:10082800102C70080139F1007108E2000608F00088
:1008380007300310F00CFF3E031D1D2C7008013912
:10084800F1007108E3000508F00004300310F00C13
:10085800FF3E031D2A2C70080139F1007108E400DD
:100868000608F00005300310F00CFF3E031D372C7E
:1008780070080139F1007108E5005A08F9005908B3
:10088800F8005808F7005708F6000B1075088A009A
:10089800740E8300FE0E7E0E0900033083120313CC
:1008A800A8002808A0005B08D727B03E840083135F
:1008B800000883120313A9002908A4000330AA0022
:1008C8002A08A0005B08D727AF3E840083130008DE
:1008D800E025013083120313DB070318DC0A00301C
:1008E800DC075C08803AFF0080307F02031D7E2C05
:1008F80004305B02031C812C822C862C8312031388
:10090800DB01DC01033083120313A8002808A000D0
:100918005B08D727B13E84008313000883120313B2
:1009280087000330A8002808A0005B08D727B03E3E
:1009380084008313000883120313A9002908A40064
:100948000330AA002A08A0005B08D727AF3E84001E
:10095800831300082825831203135B085C0403191A
:10096800B62CB72CBB2CA4010030E025BE2CA4016A
:1009780000302825080083120313A601A11FC52CE7
:10098800C62CCD2CA009A109A00A0319A10AA60109
:10099800A60AA31FD02CD12CDA2CA209A309A20ADB
:1009A8000319A30A0130A4002408A606A701A80178
:1009B800200821040319E12CE22C192DA501A50A10
:1009C800F02C01300310A00DA10DFF3E031DE62CF5
:1009D8000130A4002408A507A11FF32CF42CE52C52
:1009E80001300310A70DA80DFF3E031DF52C2108AB
:1009F8002302031D012D20082202031C042D052DAE
:100A08000C2D2008A2022108031CA303A30227140B
:100A180001300310A10CA00CFF3E031D0D2D013069
:100A2800A502031D182D192DF42C260803191D2DB8
:100A38001E2D232DA709A809A70A0319A80A280803
:100A4800A1002708A000080083120313A700712D36
:100A5800063027020318312D322D842D0130A500D0
:100A6800270A382D0310A50DFF3E031D362D250836
:100A7800FF3AA60026088505842D04302702031CAA
:100A8800462D472D842D0830270203184C2D4D2D57
:100A9800842D0130A500270A532D0310A50DFF3E14
:100AA800031D512D2508FF3AA60026088605842D2A
:100AB800083027020318612D622D842D0130A5000E
:100AC800270A682D0310A50DFF3E031D662D250876
:100AD800FF3AA60026088705842D2408A500A6014C
:100AE8002608003A0319792D842D2508003A0319A0
:100AF8002C2D013A0319412D033A03195C2D842D3D
:100B0800080083120313C501C21F8B2D8C2D932D52
:100B1800C109C209C10A0319C20AC501C50AC01F11
:100B2800962D972D9C2DBF09C009BF0A0319C00A2D
:100B38003F0840040319A12DA22DD12DC401C40AD8
:100B4800B02D01300310BF0DC00DFF3E031DA62DB3
:100B58000130C3004308C407C01FB32DB42DA52D11
:100B680040084202031DBA2D3F084102031CBD2D57
:100B7800BE2DC42D3F08C1024008031CC203C20297
:100B880001300310C00CBF0CFF3E031DC52D013002
:100B9800C402031DD02DD12DB42D45080319D52D20
:100BA800D62DDB2DC109C209C10A0319C20A4208A0
:100BB800C0004108BF00080083120313A700262EB7
:100BC800063027020318E92DEA2D392E0130A50039
:100BD800270AF02D0310A50DFF3E031DEE2D250855
:100BE800A60026088504392E04302702031CFD2D93
:100BF800FE2D392E083027020318032E042E392E15
:100C08000130A500270A0A2E0310A50DFF3E031D7B
:100C1800082E2508A60026088604392E0830270243
:100C28000318172E182E392E0130A500270A1E2E5C
:100C38000310A50DFF3E031D1C2E2508A60026083F
:100C48008704392E2408A500A6012608003A0319AE
:100C58002E2E392E2508003A0319E42D013A0319DE
:100C6800F82D033A0319122E392E080083120313A4
:100C780030082F042E042D040319432E442E872EEA
:100C8800B601B60A542E0130B5000310AD0DAE0DF5
:100C9800AF0DB00DB50B492E0130B5003508B607BC
:100CA800B01F572E582E472E30083402031D662ECB
:100CB8002F083302031D662E2E083202031D662EEE
:100CC8002D083102031C692E6A2E782E2D08B102D8
:100CD8002E08031C2E0FB2022F08031C2F0FB3027D
:100CE8003008031C300FB40201300310B00CAF0CF5
:100CF800AE0CAD0CFF3E031D792E0130B602031D6C
:100D0800862E872E582E3408B0003308AF003208DC
:100D1800AE003108AD000800003083120313B000A4
:100D28000030AF000530AE005D30AD006230BB0072
:100D38000030BC000030BD000030BE006008A300D9
:100D48005F08A2005E08A1005D08A0000030A700AF
:100D58000030A6000030A5002530A40035278312F6
:100D680003132008BB0721080318210FBC2EBD2E32
:100D7800BC0722080318220FC22EC32EBD07230862
:100D88000318230ABE073E08B4003D08B3003C0818
:100D9800B2003B08B1003A26831203133008E00082
:100DA8002F08DF002E08DE002D08DD006008BA00DD
:100DB8005F08B9005E08B8005D08B7000800831630
:100DC80003130F14FD3083120313A00020088316A9
:100DD80003138F050F15F73083120313A0002008A3
:100DE800831603138F05703083120313A0002008A5
:100DF800831603138F04831203179E019F0110307B
:100E0800831603138500F03086008701FF308312B4
:100E180003138500FF3086008701831603138113AF
:100E28008112811101148114011185308312031379
:100E380081008B170B178B168B150B110B10831654
:100E480003131516831203171516951615179517FC
:100E58001030831603139600F030831203179600A0
:100E68000800003083120313AC000030AB000030E0
:100E7800AA000030A900201C422F432F5A2F240813
:100E8800A907250803110318013E03194C2FAA07C7
:100E9800260803110318013E0319532FAB0727082F
:100EA80003110318013E03195A2FAC070130A8009B
:100EB8000310A40DA50DA60DA70DA80B5C2F0130DE
:100EC8000310A30CA20CA10CA00CFF3E031D642F61
:100ED8002308220421042004031D732F742F3F2F9D
:100EE8002C08A3002B08A2002A08A1002908A000AA
:100EF8000800043083120313A0002008831603138C
:100F0800A000A101A10AA201A20A063083120313BC
:100F1800A000200883160313A300A401A40AA501B6
:100F2800A50A073083120313A000200883160313B1
:100F3800A600A701A70AA801A80A04308312031370
:100F4800A000200883160313A900AA01AB01AB0A6D
:100F5800053083120313A000200883160313AC0086
:100F6800AD01AD0AAE01AE0A080083160313B10144
:100F7800AF01B001B401053083120313A0002008AB
:100F880083160313B200B301B701B501B50AB60160
:100F9800BA01023083120313A0002008831603133A
:100FA800B800B901080083120313A300A201231C8F
:100FB800DE2FDF2FE32F2008A1002108A20703104E
:100FC800A00D0310A30C2308031DEB2FEC2FDB2F20
:100FD8002208080001340134013401340134013499
:100FE8000634013464008001840A040603190034BD
:040FF8000406F72FC5
:02400E00D434A8
:00000001FF
