:020000000A28CC
:10000800FE00030EFA000A08FB00732B0B288E274C
:10001800E7008F27E8009027E9009127EA00922758
:10002800EB009327EC009427ED009527EE0083134F
:10003800A0308400AE3096275B3084006730962766
:100048007030840076309627830133298312031396
:10005800D4005403031D312832283528EE01CB2261
:1000680032296E08031D39283A28E428EE01EE0AE1
:10007800C5016C08303E222283120313C501C50A4C
:1000880064302222023083120313D1005108C500C4
:100098000A30A0000030A1006D08D200D301520838
:1000A800A2005308A3001324831203132008303E30
:1000B8002222033083120313D1005108C5000A30ED
:1000C800A0000030A1006D08D200D3015208A200A0
:1000D8005308A3007C24831203132008303E2222F5
:1000E800322909306C0203187A287B28FA28013053
:1000F800D1005108EC07FA2802306C02031C85284D
:100108008628FA280130EC02FA2814306D02031808
:100118008E288F28FA28A9281430D1005108ED001C
:10012800FA280C30D1005108ED00FA280A30D10025
:100138005108ED00FA280830D1005108ED00FA28DE
:100148000130D1005108ED07FA286D08D100D2011D
:100158005208003A0319B128A4285108063A03198D
:100168009F280E3A03199A28023A03199528063A45
:1001780003199028A42803306D02031CC428C5283D
:10018800FA28CE280630D1005108ED00FA280130AF
:10019800ED02FA286D08D100D2015208003A03197D
:1001A800D628CB285108083A0319C628023A031959
:1001B8009F28063A03199A28183A03199528CB2834
:1001C8005408D100D2015208003A0319EC28FA2841
:1001D8005108023A03197528013A03198028073A89
:1001E80003198928013A0319BF28FA28C5016C08A0
:1001F800303E222283120313C501C50A643022222D
:10020800023083120313D1005108C5000A30A00040
:100218000030A1006D08D200D3015208A200530893
:10022800A3001324831203132008303E2222033034
:1002380083120313D1005108C5000A30A000003012
:10024800A1006D08D200D3015208A2005308A300F0
:100258007C24831203132008303E222208008025C4
:1002680077274F27003083120313B0000030AF0008
:100278000030AE000530AD006608B4006508B30074
:100288006408B2006308B100D7248312031330084E
:100298002F042E042D04031D5229532954291A27EB
:1002A80083160313210883120313670603195D29B4
:1002B8005E298C296708031D622963298C292F3040
:1002C800D5000030D6000030D7000030D8006308D1
:1002D800D50764080318640F72297329D6076508BF
:1002E8000318650F78297929D70766080318660A5D
:1002F800D8075808F5005708F4005608F3005508C1
:10030800F2006708D500550883160313A100A22937
:10031800831603132108831203136706031995290B
:10032800962936296703031D9A299B2936296708C8
:10033800D500550883160313A10036292D252D2530
:10034800003083120313B0000030AF000030AE005D
:100358000530AD006608B4006508B3006408B20053
:100368006308B100D7248312031330082F042E0426
:100378002D04031DC029C129C2291A27831203137A
:10038800D901DA01831203135908673E84008313E5
:100398000008D5005908D6005607A13E8400000879
:1003A80055060319D829D929F4295908673E840024
:1003B8000008031DE029E129F4295908013E2A20F3
:1003C800831203135908673E840083130008D5007D
:1003D8005908D6005607A13E8400550880000D2A0A
:1003E8005908673E84000008D5005908D60056070A
:1003F800A13E8400000855060319032A042A0D2A81
:100408005908673E84000003031D0B2A0C2A0D2A95
:10041800E4290130D9070318DA0A0030DA075A0844
:10042800803AFF0080307F02031D1C2A05305902E4
:10043800031C1F2A202AC629A4290A288312031369
:10044800C8009F2A3F30C6004508C70047075C3EE2
:100458008400460883138000CA2A0630C60045086F
:10046800C70047075C3E8400460883138000CA2AF9
:100478005B30C6004508C70047075C3E8400460855
:1004880083138000CA2A4F30C6004508C7004707B3
:100498005C3E8400460883138000CA2A6630C60082
:1004A8004508C70047075C3E840046088313800060
:1004B800CA2A6D30C6004508C70047075C3E84005D
:1004C800460883138000CA2A7D30C6004508C70045
:1004D80047075C3E8400460883138000CA2A073019
:1004E800C6004508C70047075C3E840046088313DA
:1004F8008000CA2A7F30C6004508C70047075C3E0F
:100508008400460883138000CA2A6730C60045085D
:10051800C70047075C3E8400460883138000CA2A48
:100528005E30C6004508C70047075C3E84004608A1
:1005380083138000CA2A4808C600C7014708003A42
:100548000319A72ACA2A4608303A0319262A013A63
:100558000319312A033A03193C2A013A0319472A95
:10056800073A0319522A013A03195D2A033A031973
:10057800682A013A0319732A0F3A03197E2A013AA5
:100588000319892A5D3A0319942ACA2A0800831292
:100598000313CF01D001CD01CE01F92A8312031331
:1005A8006D08C900CA014908BF004A08C0002D25C6
:1005B800831203133808C2003708C100DE268312ED
:1005C80003133F08013ECB0040080318013E003EDC
:1005D800CC004B08CF070318D00A4C08D0070130CD
:1005E800CD070318CE0A0030CE074E08803AC9005E
:1005F80080304902031D022B6C084D02031C052B99
:10060800062BD22A033083120313C9004908C500F8
:100618000A30BF000030C0005008C2004F08C100B7
:10062800DE26831203133F08303E22220230831253
:100638000313C9004908C5000A30BF000030C000D4
:100648000A30A0000030A1005008A3004F08A20003
:100658001126831203132108C2002008C100DE26D8
:10066800831203133F08303E222283120313C5016D
:10067800C50A0A30BF000030C0006430A000003056
:10068800A1005008A3004F08A200112683120313EB
:100698002108C2002008C100DE26831203133F0888
:1006A800303E222283120313C5010A30BF000030F6
:1006B800C000E830A0000330A1005008A3004F0894
:1006C800A2001126831203132108C2002008C100CA
:1006D800DE26831203133F08303E222208000B1D3A
:1006E800762B772B8A2B0B1185308312031381000D
:1006F8000130E307003003180130E4070030031825
:100708000130E507003003180130E6070B1C8D2B7C
:100718008E2B0C2C831203136308F6006408F70071
:100728006508F8006608F900831603132A08F6021C
:100738002B08031C2B0FA12BA22BF7022C08031C40
:100748002C0FA72BA82BF8022D08031C2D0FAD2B5F
:10075800AE2BF9027908031DBF2B7808031DBF2BA8
:100768007708031DBF2B14307602031DBB2B031C17
:10077800BE2BBF2B0B2C8312031305080139F6007F
:100788007608E7000508F6000310760C0139F70033
:100798007708E8000508F60002300310F60CFF3E63
:1007A800031DD12B76080139F7007708E900050801
:1007B800F60004300310F60CFF3E031DDE2B76080E
:1007C8000139F7007708EA000508F600053003103C
:1007D800F60CFF3E031DEB2B76080139F70077086E
:1007E800EB00660883160313AD0083120313650834
:1007F80083160313AC0083120313640883160313D0
:10080800AB0083120313630883160313AA000B10AB
:100818007B088A007A0E8300FE0E7E0E0900831282
:100828000313A601A11F192C1A2C212CA009A10918
:10083800A00A0319A10AA601A60AA31F242C252C85
:100848002E2CA209A309A20A0319A30A0130A400A5
:100858002408A606A701A801200821040319352C9D
:10086800362C6D2CA501A50A442C01300310A00DCF
:10087800A10DFF3E031D3A2C0130A4002408A50752
:10088800A11F472C482C392C01300310A70DA80DA7
:10089800FF3E031D492C21082302031D552C200867
:1008A8002202031C582C592C602C2008A202210873
:1008B800031CA303A302271401300310A10CA00CEE
:1008C800FF3E031D612C0130A502031D6C2C6D2C0D
:1008D800482C26080319712C722C772CA709A80913
:1008E800A70A0319A80A2808A1002708A0000800D9
:1008F80083120313A601A31F822C832C8A2CA2091E
:10090800A309A20A0319A30AA601A60AA11F8D2CEE
:100918008E2C932CA009A109A00A0319A10A20086A
:1009280021040319982C992CC82CA501A50AA72CD9
:1009380001300310A00DA10DFF3E031D9D2C0130B9
:10094800A4002408A507A11FAA2CAB2C9C2C2108C5
:100958002302031DB12C20082202031CB42CB52C41
:10096800BB2C2008A2022108031CA303A302013008
:100978000310A10CA00CFF3E031DBC2C0130A502E6
:10098800031DC72CC82CAB2C26080319CC2CCD2C46
:10099800D22CA209A309A20A0319A30A2308A100B9
:1009A8002208A00008008312031330082F042E0425
:1009B8002D040319E02CE12C242DB601B60AF12CE4
:1009C8000130B5000310AD0DAE0DAF0DB00DB50B78
:1009D800E62C0130B5003508B607B01FF42CF52C0D
:1009E800E42C30083402031D032D2F083302031DA5
:1009F800032D2E083202031D032D2D083102031C7E
:100A0800062D072D152D2D08B1022E08031C2E0FBB
:100A1800B2022F08031C2F0FB3023008031C300F3B
:100A2800B40201300310B00CAF0CAE0CAD0CFF3E9D
:100A3800031D162D0130B602031D232D242DF52C80
:100A48003408B0003308AF003208AE003108AD00FA
:100A58000800003083120313B0000030AF000530E7
:100A6800AE005D30AD006230BB000030BC0000302D
:100A7800BD000030BE007508A3007408A20073080A
:100A8800A1007208A0000030A7000030A6000030C6
:100A9800A5002530A400C925831203132008BB072D
:100AA80021080318210F592D5A2DBC0722080318B5
:100AB800220F5F2D602DBD0723080318230ABE07E8
:100AC8003E08B4003D08B3003C08B2003B08B10042
:100AD800D724831203133008F5002F08F4002E08DA
:100AE800F3002D08F2007508BA007408B9007308FD
:100AF800B8007208B7000800831603130F14FD30FE
:100B080083120313A0002008831603138F050F1503
:100B1800F73083120313A0002008831603138F05F0
:100B2800703083120313A0002008831603138F0468
:100B3800831203179E01373083160313850086013D
:100B48008701FF30831203138500FF308600FF30D2
:100B580087008316031381138112811101148114F4
:100B6800011185308312031381008B170B178B1625
:100B78008B150B110B1083160313151495141515EB
:100B880015169516373096000800003083120313A7
:100B9800AC000030AB000030AA000030A900201CD7
:100BA800D62DD72DEE2D2408A907250803110318E3
:100BB800013E0319E02DAA07260803110318013E78
:100BC8000319E72DAB07270803110318013E031982
:100BD800EE2DAC070130A8000310A40DA50DA60D3D
:100BE800A70DA80BF02D01300310A30CA20CA10C2B
:100BF800A00CFF3E031DF82D230822042104200425
:100C0800031D072E082ED32D2C08A3002B08A200A5
:100C18002A08A1002908A000080083120313A601CE
:100C2800A7012008210403191A2E1B2E522EA501F4
:100C3800A50A292E01300310A00DA10DFF3E031DAA
:100C48001F2E0130A4002408A507A11F2C2E2D2E2D
:100C58001E2E01300310A60DA70DFF3E031D2E2EDC
:100C680021082302031D3A2E20082202031C3D2ED0
:100C78003E2E452E2008A2022108031CA303A3022E
:100C8800261401300310A10CA00CFF3E031D462EB4
:100C98000130A502031D512E522E2D2E2708A1002A
:100CA8002608A000080083120313A300882E013031
:100CB800A100230A612E0310A10DFF3E031D5F2E24
:100CC8002108FF3AA200220885059B2E0130A100C9
:100CD800230A702E0310A10DFF3E031D6E2E21085E
:100CE800FF3AA200220886059B2E0130A100230AA4
:100CF8007F2E0310A10DFF3E031D7D2E2108FF3A14
:100D0800A200220887059B2E2008A100A201220824
:100D1800003A0319902E9B2E2108003A03195B2EE6
:100D2800013A03196A2E033A0319792E9B2E0800FB
:100D380083120313A300CA2E0130A100230AA62E92
:100D48000310A10DFF3E031DA42E2108A2002208B6
:100D58008504DD2E0130A100230AB42E0310A10D55
:100D6800FF3E031DB22E2108A20022088604DD2EB4
:100D78000130A100230AC22E0310A10DFF3E031D5E
:100D8800C02E2108A20022088704DD2E2008A10019
:100D9800A2012208003A0319D22EDD2E2108003ABA
:100DA8000319A02E013A0319AE2E033A0319BC2EDB
:100DB800DD2E0800831203133F0840040319E52EB3
:100DC800E62E152FC401C40AF42E01300310BF0DFE
:100DD800C00DFF3E031DEA2E0130C3004308C407BF
:100DE800C01FF72EF82EE92E40084202031DFE2EE2
:100DF8003F084102031C012F022F082F3F08C102A0
:100E08004008031CC203C20201300310C00CBF0C0F
:100E1800FF3E031D092F0130C402031D142F152F97
:100E2800F82E4208C0004108BF00080083120313CF
:100E3800A001A00A7008A40024075B3E8400831365
:100E480000089C260130F0070318F10A0030F1076A
:100E58007108803AFF0080307F02031D352F04306F
:100E68007002031C382F392F3B2FF001F101700855
:100E780083120313A40024075C3E84008313000834
:100E88008700A001A00A7008A40024075B3E840024
:100E980000085726080083160313A001A101A10A20
:100EA800A201A20AA301A30A023083120313A0001D
:100EB800200883160313A400A501A50A0430831291
:100EC8000313A000200883160313A600A701A70A8E
:100ED800053083120313A000200883160313A8000B
:100EE800A901A90A080083120313DC010430A00039
:100EF8002008DB00DE010530A0002008DD00E0014D
:100F08000630A0002008DF00E2010730A00020081A
:100F1800E1000800013401340134013401340134A2
:100F28000634013464008001840A0406031900347D
:040F38000406972FE5
:02400E00D434A8
:00000001FF
