:020000000A28CC
:10000800FE00030EFA000A08FB00742B0B28872752
:10001800E8008827E9008927EA008A27EB008B2770
:10002800EC008C27ED008D27EE008E27EF00831360
:10003800A0308400AA308F275830840068308F277A
:100048007030840076308F2783013329831203139D
:10005800D3005303031D312832283528EF01DA2253
:1000680032296F08031D39283A28E428EF01EF0ADE
:10007800C5016D08303E312283120313C501C50A3C
:1000880064303122023083120313D0005008C500B7
:100098000A30A0000030A1006E08D100D20151083A
:1000A800A2005208A3000424831203132008303E40
:1000B8003122033083120313D0005008C5000A30E0
:1000C800A0000030A1006E08D100D2015108A200A2
:1000D8005208A3006D24831203132008303E3122F6
:1000E800322909306D0203187A287B28FA28013052
:1000F800D0005008ED07FA2802306D02031C85284D
:100108008628FA280130ED02FA2814306E02031806
:100118008E288F28FA28A9281430D0005008EE001D
:10012800FA280C30D0005008EE00FA280A30D00027
:100138005008EE00FA280830D0005008EE00FA28DF
:100148000130D0005008EE07FA286E08D000D1011F
:100158005108003A0319B128A4285008063A03198F
:100168009F280E3A03199A28023A03199528063A45
:1001780003199028A42803306E02031CC428C5283C
:10018800FA28CE280630D0005008EE00FA280130B0
:10019800EE02FA286E08D000D1015108003A03197E
:1001A800D628CB285008083A0319C628023A03195A
:1001B8009F28063A03199A28183A03199528CB2834
:1001C8005308D000D1015108003A0319EC28FA2845
:1001D8005008023A03197528013A03198028073A8A
:1001E80003198928013A0319BF28FA28C5016D089F
:1001F800303E312283120313C501C50A643031220F
:10020800023083120313D0005008C5000A30A00042
:100218000030A1006E08D100D2015108A200520896
:10022800A3000424831203132008303E3122033034
:1002380083120313D0005008C5000A30A000003014
:10024800A1006E08D100D2015108A2005208A300F3
:100258006D24831203132008303E312208004426FF
:1002680064273C27003083120313B0000030AF002E
:100278000030AE000530AD006308B4006208B3007A
:100288006108B2006008B100C82483120313300863
:100298002F042E042D04031D5229532954290727FE
:1002A80083160313210883120313680603195D29B3
:1002B8005E298C296808031D622963298C292F303F
:1002C800D4000030D5000030D6000030D7006008D8
:1002D800D40761080318610F72297329D5076208CA
:1002E8000318620F78297929D60763080318630A67
:1002F800D7075708E7005608E6005508E5005408F0
:10030800E4006808D400540883160313A100A22946
:10031800831603132108831203136806031995290A
:10032800962936296803031D9A299B2936296808C6
:10033800D400540883160313A10036291E251E2550
:10034800003083120313B0000030AF000030AE005D
:100358000530AD006308B4006208B3006108B2005C
:100368006008B100C8248312031330082F042E0438
:100378002D04031DC029C129C22907278316031389
:10038800AA012A08683E8400831300088312031315
:10039800D400831603132A0883120313D5005507C4
:1003A800A13E8400000854060319DB29DC29FF2933
:1003B800831603132A08683E84000008031DE529F4
:1003C800E629FF292A08013E2A20831603132A0852
:1003D800683E84008313000883120313D400831635
:1003E80003132A0883120313D5005507A13E84007E
:1003F80054088000222A831603132A08683E8400C2
:10040800000883120313D400831603132A088312E7
:100418000313D5005507A13E8400000854060319AC
:10042800162A172A222A831603132A08683E8400EC
:100438000003031D202A212A222AE92901308312D8
:10044800D400540883160313AA0705302A02031C94
:100458002E2A2F2AC529A4290A2883120313C80083
:10046800AE2A3F30C6004508C7004707593E8400FA
:10047800460883138000D92A0630C6004508C700FD
:100488004707593E8400460883138000D92A5B3009
:10049800C6004508C7004707593E8400460883132D
:1004A8008000D92A4F30C6004508C7004707593E83
:1004B8008400460883138000D92A6630C6004508A0
:1004C800C7004707593E8400460883138000D92A8D
:1004D8006D30C6004508C7004707593E84004608E6
:1004E80083138000D92A7D30C6004508C700470716
:1004F800593E8400460883138000D92A0730C60075
:100508004508C7004707593E840046088313800002
:10051800D92A7F30C6004508C7004707593E8400DE
:10052800460883138000D92A6730C6004508C700EB
:100538004707593E8400460883138000D92A5E3055
:10054800C6004508C7004707593E8400460883137C
:100558008000D92A4808C600C7014708003A03198D
:10056800B62AD92A4608303A0319352A013A031916
:10057800402A033A03194B2A013A0319562A073A23
:100588000319612A013A03196C2A033A0319772AD5
:10059800013A0319822A0F3A03198D2A013A0319DD
:1005A800982A5D3A0319A32AD92A0800831203134B
:1005B800CE01CF01CD01032B6E08C900CA0149083D
:1005C800BF004A08C0001E25831203133808C20062
:1005D8003708C100CB26831203133F08013ECB0026
:1005E80040080318013E003ECC004B08CE07031814
:1005F800CF0A4C08CF070130C9004908CD076D085C
:100608004D02031C082B092BE02A0330C9004908B6
:10061800C5000A30BF000030C0004F08C2004E08B5
:10062800C100CB26831203133F08303E312202302B
:1006380083120313C9004908C5000A30BF000030FF
:10064800C0000A30A0000030A1004F08A3004E08E7
:10065800A200B925831203132108C2002008C10093
:10066800CB26831203133F08303E31228312031333
:10067800C501C50A0A30BF000030C0006430A000C0
:100688000030A1004F08A3004E08A200B92583122C
:1006980003132108C2002008C100CB2683120313CC
:1006A8003F08303E312283120313C5010A30BF00D0
:1006B8000030C000E830A0000330A1004F08A300BC
:1006C8004E08A200B925831203132108C20020088E
:1006D800C100CB26831203133F08303E31220800A5
:1006E8000B1D772B782B8B2B0B1185308312031363
:1006F80081000130E007003003180130E1070030C5
:1007080003180130E207003003180130E3070B1C1F
:100718008E2B8F2BFD2B831203136008F6006108C4
:10072800F7006208F8006308F9007008F60271081B
:10073800031C710FA02BA12BF7027208031C720F68
:10074800A62BA72BF8027308031C730FAC2BAD2B39
:10075800F9027908031DBE2B7808031DBE2B770804
:10076800031DBE2B14307602031DBA2B031CBD2BB0
:10077800BE2BFC2B8312031305080139F6007608FB
:10078800E8000508F6000310760C0139F700770831
:10079800E9000508F60002300310F60CFF3E031DC1
:1007A800D02B76080139F7007708EA000508F6002B
:1007B80004300310F60CFF3E031DDD2B76080139CB
:1007C800F7007708EB000508F60005300310F60C73
:1007D800FF3E031DEA2B76080139F7007708EC0085
:1007E8006308F3006208F2006108F1006008F00095
:1007F8000B107B088A007A0E8300FE0E7E0E09001D
:1008080083120313A601A11F0A2C0B2C122CA0097A
:10081800A109A00A0319A10AA601A60AA31F152C5B
:10082800162C1F2CA209A309A20A0319A30A013036
:10083800A4002408A606A701A8012008210403197A
:10084800262C272C5E2CA501A50A352C0130031077
:10085800A00DA10DFF3E031D2B2C0130A400240880
:10086800A507A11F382C392C2A2C01300310A70DFD
:10087800A80DFF3E031D3A2C21082302031D462C18
:1008880020082202031C492C4A2C512C2008A202C1
:100898002108031CA303A302271401300310A10C91
:1008A800A00CFF3E031D522C0130A502031D5D2C38
:1008B8005E2C392C26080319622C632C682CA70996
:1008C800A809A70A0319A80A2808A1002708A00050
:1008D800080083120313A601A31F732C742C7B2C0E
:1008E800A209A309A20A0319A30AA601A60AA11F1D
:1008F8007E2C7F2C842CA009A109A00A0319A10A27
:10090800200821040319892C8A2CB92CA501A50AD1
:10091800982C01300310A00DA10DFF3E031D8E2C55
:100928000130A4002408A507A11F9B2C9C2C8D2C0A
:1009380021082302031DA22C20082202031CA52C37
:10094800A62CAC2C2008A2022108031CA303A30296
:1009580001300310A10CA00CFF3E031DAD2C01308B
:10096800A502031DB82CB92C9C2C26080319BD2CF4
:10097800BE2CC32CA209A309A20A0319A30A23089F
:10098800A1002208A00008008312031330082F04D6
:100998002E042D040319D12CD22C152DB601B60A1C
:1009A800E22C0130B5000310AD0DAE0DAF0DB00D4A
:1009B800B50BD72C0130B5003508B607B01FE52CAC
:1009C800E62CD52C30083402031DF42C2F083302F2
:1009D800031DF42C2E083202031DF42C2D083102BD
:1009E800031CF72CF82C062D2D08B1022E08031C29
:1009F8002E0FB2022F08031C2F0FB3023008031C5E
:100A0800300FB40201300310B00CAF0CAE0CAD0CBB
:100A1800FF3E031D072D0130B602031D142D152DB1
:100A2800E62C3408B0003308AF003208AE003108B5
:100A3800AD000800003083120313B0000030AF008F
:100A48000530AE005D30AD006230BB000030BC0048
:100A58000030BD000030BE006708A3006608A20091
:100A68006508A1006408A0000030A7000030A600B7
:100A78000030A5002530A400712583120313200837
:100A8800BB0721080318210F4A2D4B2DBC0722084C
:100A98000318220F502D512DBD0723080318230AD0
:100AA800BE073E08B4003D08B3003C08B2003B084E
:100AB800B100C824831203133008E7002F08E600AA
:100AC8002E08E5002D08E4006708BA006608B9009A
:100AD8006508B8006408B7000800003083120313E3
:100AE800AC000030AB000030AA000030A900201C88
:100AF8007E2D7F2D962D2408A9072508031103189C
:100B0800013E0319882DAA07260803110318013E80
:100B180003198F2DAB07270803110318013E03198A
:100B2800962DAC070130A8000310A40DA50DA60D45
:100B3800A70DA80B982D01300310A30CA20CA10C33
:100B4800A00CFF3E031DA02D23082204210420042D
:100B5800031DAF2DB02D7B2D2C08A3002B08A20060
:100B68002A08A1002908A000080083120313A6017F
:100B7800A701200821040319C22DC32DFA2DA501B0
:100B8800A50AD12D01300310A00DA10DFF3E031DB4
:100B9800C72D0130A4002408A507A11FD42DD52DE9
:100BA800C62D01300310A60DA70DFF3E031DD62D3F
:100BB80021082302031DE22D20082202031CE52D33
:100BC800E62DED2D2008A2022108031CA303A30291
:100BD800261401300310A10CA00CFF3E031DEE2DBE
:100BE8000130A502031DF92DFA2DD52D2708A100E6
:100BF8002608A000080083120313A300302E01303A
:100C0800A100230A092E0310A10DFF3E031D072E84
:100C18002108FF3AA20022088505432E0130A100D1
:100C2800230A182E0310A10DFF3E031D162E2108BE
:100C3800FF3AA20022088605432E0130A100230AAC
:100C4800272E0310A10DFF3E031D252E2108FF3A74
:100C5800A20022088705432E2008A100A20122082D
:100C6800003A0319382E432E2108003A0319032E9F
:100C7800013A0319122E033A0319212E432E0800B4
:100C8800831603130F14FD3083120313A0002008EA
:100C9800831603138F050F15F73083120313A00073
:100CA8002008831603138F05703083120313A000E6
:100CB8002008831603138F04831203179E0137300D
:100CC80083160313850086018701FF3083120313FF
:100CD80085008601FF308700831603138113811274
:100CE80081110114811401118530831203138100CD
:100CF8008B170B178B168B150B110B103F308316A8
:100D08000313950037309600080083120313A300DD
:100D1800B72E0130A100230A932E0310A10DFF3E28
:100D2800031D912E2108A20022088504CA2E013035
:100D3800A100230AA12E0310A10DFF3E031D9F2E23
:100D48002108A20022088604CA2E0130A100230A25
:100D5800AF2E0310A10DFF3E031DAD2E2108A200EA
:100D680022088704CA2E2008A100A2012208003AFE
:100D78000319BF2ECA2E2108003A03198D2E013AF5
:100D880003199B2E033A0319A92ECA2E08008312B1
:100D980003133F0840040319D22ED32E022FC40197
:100DA800C40AE12E01300310BF0DC00DFF3E031D24
:100DB800D72E0130C3004308C407C01FE42EE52E18
:100DC800D62E40084202031DEB2E3F084102031CA9
:100DD800EE2EEF2EF52E3F08C1024008031CC20379
:100DE800C20201300310C00CBF0CFF3E031DF62EDB
:100DF8000130C402031D012F022FE52E4208C00056
:100E08004108BF00080083120313A001A00A740858
:100E1800A4002407583E8400831300088926013063
:100E2800F4070318F50A0030F5077508803AFF0043
:100E380080307F02031D222F04307402031C252FEB
:100E4800262F282FF401F501740883120313A40038
:100E58002407593E8400831300088700A001A00AD4
:100E68007408A4002407583E84000008FF250800E1
:100E780083160313A001A101A10AA201A20AA301DA
:100E8800A30A023083120313A00020088316031359
:100E9800A400A501A50A043083120313A0002008AA
:100EA80083160313A600A701A70A053083120313AC
:100EB800A000200883160313A800A901A90A0800A6
:100EC800063083120313A0002008D9000430A000C4
:100ED8002008D8005E30A0002008DB000530A00004
:100EE8002008DA003F30A0002008DD000630A0000E
:100EF8002008DC007D30A0002008DF000730A000BB
:100F08002008DE00080001340134013401340134C2
:100F180001340634013464008001840A040603198C
:060F280000340406902FC6
:02400E00D434A8
:00000001FF
