:020000000A28CC
:10000800FE00030EF4000A08F5000B2A0B28D4247E
:10001800CD00D524CE00D624CF00D724D000D824B4
:10002800D100D924FA008313203084004130CC2435
:10003800763084007A30CC24830118298312031384
:10004800C80004304502031C2A282B28EC2817294D
:100058003F30C6000330C7004708C10045089F2449
:10006800313E840083120313460883138000172946
:100078000630C6000330C7004708C10045089F2462
:10008800313E840083120313460883138000172926
:100098005B30C6000330C7004708C10045089F24ED
:1000A800313E840083120313460883138000172906
:1000B8004F30C6000330C7004708C10045089F24D9
:1000C800313E8400831203134608831380001729E6
:1000D8006630C6000330C7004708C10045089F24A2
:1000E800313E8400831203134608831380001729C6
:1000F8006D30C6000330C7004708C10045089F247B
:10010800313E8400831203134608831380001729A5
:100118007D30C6000330C7004708C10045089F244A
:10012800313E840083120313460883138000172985
:100138000730C6000330C7004708C10045089F24A0
:10014800313E840083120313460883138000172965
:100158007F30C6000330C7004708C10045089F2408
:10016800313E840083120313460883138000172945
:100178006730C6000330C7004708C10045089F2400
:10018800313E840083120313460883138000172925
:100198005E30C6000330C7004708C10045089F24E9
:1001A800313E840083120313460883138000172905
:1001B8007730C6000330C7004708C10045089F24B0
:1001C800313E8400831203134608831380001729E5
:1001D8004808C600C7014708003A0319F428DC2874
:1001E8004608303A03192C28013A03193C28033AE7
:1001F80003194C28013A03195C28073A03196C289B
:10020800013A03197C28033A03198C28013A031987
:100218009C280F3A0319AC28013A0319BC285D3A07
:100228000319CC28DC2808002324B624752483125B
:100238000313C5013030222083120313C501C50AF8
:1002480031302220023083120313CC004C08C50041
:1002580032302220033083120313CC004C08C5002F
:1002680033302220003083120313C4000030C3004F
:100278000030C2000530C1003E08C8003D08C70074
:100288003C08C6003B08C500CD238312031344086D
:10029800430442044104031D522953295429A82226
:1002A8008312031322084D0603195B295C296E2962
:1002B8004D08031D602961296E290230CC004C08C5
:1002C800C50064302220831203134D08CC004C086B
:1002D800A2007A2922084D060319732974297A295C
:1002E8004D03031D782979297A29672925084E069F
:1002F80003197F29802992294E08031D84298529FD
:1003080092290230CC004C08C500393022208312D3
:1003180003134E08CC004C08A5009E2925084E065C
:100328000319972998299E294E03031D9C299D2965
:100338009E298B2928084F060319A329A429B62921
:100348004F08031DA829A929B6290230CC004C085A
:10035800C50030302220831203134F08CC004C080C
:10036800A800C22928084F060319BB29BC29C2299D
:100378004F03031DC029C129C229AF292B085006E4
:100388000319C729C829DA295008031DCC29CD2902
:10039800DA290230CC004C08C500363022208312FE
:1003A80003135008CC004C08AB00E6292B084D0677
:1003B8000319DF29E029E6295003031DE429E5296B
:1003C800E629D3292E0851060319EB29EC29FE2921
:1003D8005108031DF029F129FE290230CC004C08F0
:1003E800C50038302220831203135108CC004C0872
:1003F800AE0036292E0851060319032A042A362985
:100408005103031D082A092A3629F7290A280B1D32
:100418000E2A0F2A222A0B1185308312031381001A
:100428000130BB07003003180130BC070030031847
:100438000130BD07003003180130BE070B1C252A08
:10044800262AA12A831203133B08F0003C08F10076
:100458003D08F2003E08F3007608F0027708031C16
:10046800770F372A382AF1027808031C780F3D2ABB
:100478003E2AF2027908031C790F432A442AF30220
:100488007308031D552A7208031D552A7108031D98
:10049800552A14307002031D512A031C542A552A68
:1004A800A02A831203130608F00004300310F00C8E
:1004B800FF3E031D5A2A70080139F1007108CD006A
:1004C8000608F00006300310F00CFF3E031D672AF3
:1004D80070080139F1007108CE000608F0000730F5
:1004E8000310F00CFF3E031D742A70080139F10057
:1004F8007108CF000508F00004300310F00CFF3E2F
:10050800031D812A70080139F1007108D00006081E
:10051800F00005300310F00CFF3E031D8E2A700812
:100528000139F1007108D1003E08F9003D08F800D2
:100538003C08F7003B08F6000B1075088A00740E9B
:100548008300FE0E7E0E0900033083120313C900D8
:100558004908C1003F089F24303E840083130008E7
:1005680083120313CA004A08C5000330CB004B08A6
:10057800C1003F089F242F3E840083130008732383
:10058800013083120313BF070318C00A0030C007E5
:100598004008803AFF0080307F02031DD52A0430CE
:1005A8003F02031CD82AD92ADD2A83120313BF016C
:1005B800C001033083120313C9004908C1003F0872
:1005C8009F24313E8400831300088312031387009D
:1005D8000330C9004908C1003F089F24303E840009
:1005E8008313000883120313CA004A08C5000330A6
:1005F800CB004B08C1003F089F242F3E8400831383
:1006080000081623831203133F08400403190D2B17
:100618000E2B122BC50100307323152BC50100309A
:100628001623080083120313C8005F2B0630480204
:1006380003181F2B202B722B0130C600480A262BCB
:100648000310C60DFF3E031D242B4608FF3AC700C2
:1006580047088505722B04304802031C342B352BC0
:10066800722B0830480203183A2B3B2B722B0130AF
:10067800C600480A412B0310C60DFF3E031D3F2B41
:100688004608FF3AC70047088605722B083048021B
:1006980003184F2B502B722B0130C600480A562BDB
:1006A8000310C60DFF3E031D542B4608FF3AC70032
:1006B80047088705722B4508C600C7014708003A56
:1006C8000319672B722B4608003A03191A2B013AB3
:1006D80003192F2B033A03194A2B722B0800831294
:1006E8000313C800B92B0630480203187C2B7D2B56
:1006F800CC2B0130C600480A832B0310C60DFF3EE1
:10070800031D812B4608C70047088504CC2B0430FD
:100718004802031C902B912BCC2B0830480203185D
:10072800962B972BCC2B0130C600480A9D2B031023
:10073800C60DFF3E031D9B2B4608C70047088604CD
:10074800CC2B083048020318AA2BAB2BCC2B01303A
:10075800C600480AB12B0310C60DFF3E031DAF2B80
:100768004608C70047088704CC2B4508C600C701C0
:100778004708003A0319C12BCC2B4608003A031945
:10078800772B013A03198B2B033A0319A52BCC2B92
:100798000800831203134408430442044104031964
:1007A800D62BD72B1A2CCA01CA0AE72B0130C9004D
:1007B8000310C10DC20DC30DC40DC90BDC2B0130D4
:1007C800C9004908CA07C41FEA2BEB2BDA2B4408D7
:1007D8004802031DF92B43084702031DF92B420861
:1007E8004602031DF92B41084502031CFC2BFD2B77
:1007F8000B2C4108C5024208031C420FC6024308DD
:10080800031C430FC7024408031C440FC8020130ED
:100818000310C40CC30CC20CC10CFF3E031D0C2CEE
:100828000130CA02031D192C1A2CEB2B4808C400EE
:100838004708C3004608C2004508C10008008316DF
:1008480003130F14FD3083120313C10041088316EC
:1008580003138F050F15F73083120313C1004108E6
:10086800831603138F05703083120313C1004108E8
:10087800831603138F04831203179E019F01103000
:10088800831603138500F03086008701FF3083123A
:1008980003138500FF308600870183160313811335
:1008A80081128111011481140111853083120313FF
:1008B80081008B170B178B168B150B110B108316DA
:1008C8000313151683120317151695161517951782
:1008D8001030831603139600F03083120317960026
:1008E8000800043083120313C1004108A000A101CD
:1008F800A10AA201A20A0630C1004108A300A4016E
:10090800A40AA501A50A0730C1004108A600A7014D
:10091800A70AA801A80A0430C1004108A900AA0131
:10092800AB01AB0A0530C1004108AC00AD01AD0A0E
:10093800AE01AE0A080083120313C400C301441CAD
:10094800A62CA72CAB2C4108C2004208C3070310F1
:10095800C10D0310C40C4408031DB32CB42CA32CE4
:100968004308080083120313B101AF01B001B401B9
:100978000530C1004108B200B301B701B501B50A9D
:10098800B601BA010230C1004108B800B901080037
:1009980064008001840A0406031900340406CD2C7F
:0C09A80001340134013401340134013405
:02400E00D434A8
:00000001FF
