:020000000A28CC
:10000800FE00030EF0000A08F100BD280B28831239
:100018000313AC01AD01AE01AF01830113288316B0
:1000280003130F14FD30F20072088F050F15F73017
:10003800F20072088F057030F20072088F040330E6
:10004800810085308312031381008B170B178B16E1
:100058000B120B118316031386018701E0308312FC
:1000680003138600FF3087000030A3000030A20091
:100078000030A1000030A0007730F2007208A40020
:100088007C30F2007208A5003930F2007208A60030
:100098005E30F2007208A7007930F2007208A800FA
:1000A8007130F2007208A900AA01AB012408870088
:1000B8000130AA070318AB0A0030AB0783120313F9
:1000C8002C08F2002D08F3002E08F4002F08F50084
:1000D8002008F2022108031C210F73287428F30258
:1000E8002208031C220F79287A28F4022308031C0B
:1000F800230F7F288028F5027508031D92287408AD
:10010800031D922803307302031D8E28E930720202
:10011800031D8E28031C912892286228831203133A
:100128002A08243E84008313000887000130AA07A8
:100138000318AB0A0030AB072B08803AFF00803069
:100148007F02031DA92806302A02031CAC28AD280B
:10015800B12883120313AA01AB01831203132F08DA
:10016800A3002E08A2002D08A1002C08A0006228D8
:100178000A280B1DC028C128D4280B1185308312EA
:10018800031381000130AC07003003180130AD07BC
:10019800003003180130AE07003003180130AF07F4
:0E01A80071088A00700E8300FE0E7E0E0900A4
:02400E00D430AC
:00000001FF
