:02000000FD2BD6
:10072C008312A11B9A2B9B2BBE2B2108803ADF0036
:10073C0080305F02031DA42B063020020318A72B68
:10074C00A82BBE2B01308312A200200AAF2B031062
:10075C00A20DFF3E031DAD2B22080705A300200AA6
:10076C00B92B0310A30CFF3E031DB72B2308BF2B83
:10077C00003008007E30831687008312A601FE30FD
:10078C00A400240887050130A0000030A1009623A6
:10079C008312A4002408A700270826060319D72BC8
:1007AC00D82BF02B27080319DC2BDD2BF02B013079
:1007BC00A400240887060D30A500FB30A400A40B70
:1007CC00E52BA50BE52BEA2B83122708A4002408A4
:1007DC00A600C92B270826060319F52BF62BC92BC7
:1007EC002708031DFA2BFB2BC92BEA2B00288301AE
:0207FC00C02B10
:02400E00943FDD
:00000001FF
