:020000000A28CC
:10000800FE00030EF1000A08F20037280B288301CE
:100018000D28831603130F14FD30F30073088F05A2
:100028000F15F730F30073088F057030F30073086D
:100038008F04831203179E0183160313860104306D
:1000480085008312031386018B170B178B150B1072
:1000580004308316031396008113151583120313B6
:10006800861735280A280B1C3A283B284228803056
:10007800F00070088312031386060B1072088A00BA
:0A008800710E8300FE0E7E0E0900CB
:02400E00D430AC
:00000001FF
